{
  "contractName": "DegreeVerification",
  "abi": [
    {
      "inputs": [],
      "stateMutability": "nonpayable",
      "type": "constructor"
    },
    {
      "anonymous": false,
      "inputs": [
        {
          "indexed": true,
          "internalType": "bytes32",
          "name": "degreeHash",
          "type": "bytes32"
        },
        {
          "indexed": false,
          "internalType": "string",
          "name": "firstName",
          "type": "string"
        },
        {
          "indexed": false,
          "internalType": "string",
          "name": "lastName",
          "type": "string"
        },
        {
          "indexed": false,
          "internalType": "string",
          "name": "rollNumber",
          "type": "string"
        }
      ],
      "name": "DegreeAdded",
      "type": "event"
    },
    {
      "anonymous": false,
      "inputs": [
        {
          "indexed": true,
          "internalType": "address",
          "name": "verifier",
          "type": "address"
        }
      ],
      "name": "VerifierAdded",
      "type": "event"
    },
    {
      "anonymous": false,
      "inputs": [
        {
          "indexed": true,
          "internalType": "address",
          "name": "verifier",
          "type": "address"
        }
      ],
      "name": "VerifierRemoved",
      "type": "event"
    },
    {
      "inputs": [],
      "name": "admin",
      "outputs": [
        {
          "internalType": "address",
          "name": "",
          "type": "address"
        }
      ],
      "stateMutability": "view",
      "type": "function",
      "constant": true
    },
    {
      "inputs": [
        {
          "internalType": "address",
          "name": "",
          "type": "address"
        }
      ],
      "name": "verifiers",
      "outputs": [
        {
          "internalType": "bool",
          "name": "",
          "type": "bool"
        }
      ],
      "stateMutability": "view",
      "type": "function",
      "constant": true
    },
    {
      "inputs": [
        {
          "internalType": "address",
          "name": "_addr",
          "type": "address"
        }
      ],
      "name": "isAddressAdmin",
      "outputs": [
        {
          "internalType": "bool",
          "name": "",
          "type": "bool"
        }
      ],
      "stateMutability": "view",
      "type": "function",
      "constant": true
    },
    {
      "inputs": [
        {
          "internalType": "address",
          "name": "_verifier",
          "type": "address"
        }
      ],
      "name": "addVerifier",
      "outputs": [],
      "stateMutability": "nonpayable",
      "type": "function"
    },
    {
      "inputs": [
        {
          "internalType": "address",
          "name": "_verifier",
          "type": "address"
        }
      ],
      "name": "removeVerifier",
      "outputs": [],
      "stateMutability": "nonpayable",
      "type": "function"
    },
    {
      "inputs": [
        {
          "internalType": "string",
          "name": "_firstName",
          "type": "string"
        },
        {
          "internalType": "string",
          "name": "_lastName",
          "type": "string"
        },
        {
          "internalType": "string",
          "name": "_rollNumber",
          "type": "string"
        },
        {
          "internalType": "string",
          "name": "_gender",
          "type": "string"
        },
        {
          "internalType": "string",
          "name": "_course",
          "type": "string"
        },
        {
          "internalType": "string",
          "name": "_email",
          "type": "string"
        },
        {
          "internalType": "string",
          "name": "_year",
          "type": "string"
        },
        {
          "internalType": "string",
          "name": "_graduationYear",
          "type": "string"
        },
        {
          "internalType": "string",
          "name": "_gpa",
          "type": "string"
        },
        {
          "internalType": "bytes32",
          "name": "_hexCode",
          "type": "bytes32"
        }
      ],
      "name": "addDegree",
      "outputs": [],
      "stateMutability": "nonpayable",
      "type": "function"
    },
    {
      "inputs": [
        {
          "internalType": "bytes32",
          "name": "_hexCode",
          "type": "bytes32"
        }
      ],
      "name": "verifyDegree",
      "outputs": [
        {
          "internalType": "bool",
          "name": "",
          "type": "bool"
        },
        {
          "components": [
            {
              "internalType": "string",
              "name": "firstName",
              "type": "string"
            },
            {
              "internalType": "string",
              "name": "lastName",
              "type": "string"
            },
            {
              "internalType": "string",
              "name": "rollNumber",
              "type": "string"
            },
            {
              "internalType": "string",
              "name": "gender",
              "type": "string"
            },
            {
              "internalType": "string",
              "name": "course",
              "type": "string"
            },
            {
              "internalType": "string",
              "name": "email",
              "type": "string"
            },
            {
              "internalType": "string",
              "name": "year",
              "type": "string"
            },
            {
              "internalType": "string",
              "name": "graduationYear",
              "type": "string"
            },
            {
              "internalType": "string",
              "name": "gpa",
              "type": "string"
            },
            {
              "internalType": "bool",
              "name": "exists",
              "type": "bool"
            }
          ],
          "internalType": "struct DegreeVerification.Degree",
          "name": "",
          "type": "tuple"
        }
      ],
      "stateMutability": "view",
      "type": "function",
      "constant": true
    }
  ],
  "bytecode": "0x608060405234801561001057600080fd5b5033600160006101000a81548173ffffffffffffffffffffffffffffffffffffffff021916908373ffffffffffffffffffffffffffffffffffffffff160217905550611734806100616000396000f3fe608060405234801561001057600080fd5b506004361061007d5760003560e01c8063aa7f31771161005b578063aa7f3177146100ff578063c6909d7e1461012f578063ca2dfd0a1461014b578063f851a440146101675761007d565b8063568ef991146100825780636c824487146100b35780639000b3d6146100e3575b600080fd5b61009c60048036038101906100979190610f6c565b610185565b6040516100aa92919061143b565b60405180910390f35b6100cd60048036038101906100c89190610f43565b6107fd565b6040516100da9190611420565b60405180910390f35b6100fd60048036038101906100f89190610f43565b61081d565b005b61011960048036038101906101149190610f43565b61094b565b6040516101269190611420565b60405180910390f35b61014960048036038101906101449190610f95565b6109a5565b005b61016560048036038101906101609190610f43565b610c65565b005b61016f610d93565b60405161017c9190611405565b60405180910390f35b600061018f610db9565b600260003373ffffffffffffffffffffffffffffffffffffffff1673ffffffffffffffffffffffffffffffffffffffff16815260200190815260200160002060009054906101000a900460ff16806102345750600160009054906101000a900473ffffffffffffffffffffffffffffffffffffffff1673ffffffffffffffffffffffffffffffffffffffff163373ffffffffffffffffffffffffffffffffffffffff16145b610273576040517f08c379a000000000000000000000000000000000000000000000000000000000815260040161026a906114b7565b60405180910390fd5b60008084815260200190815260200160002060090160009054906101000a900460ff1660008085815260200190815260200160002080604051806101400160405290816000820180546102c59061162f565b80601f01602080910402602001604051908101604052809291908181526020018280546102f19061162f565b801561033e5780601f106103135761010080835404028352916020019161033e565b820191906000526020600020905b81548152906001019060200180831161032157829003601f168201915b505050505081526020016001820180546103579061162f565b80601f01602080910402602001604051908101604052809291908181526020018280546103839061162f565b80156103d05780601f106103a5576101008083540402835291602001916103d0565b820191906000526020600020905b8154815290600101906020018083116103b357829003601f168201915b505050505081526020016002820180546103e99061162f565b80601f01602080910402602001604051908101604052809291908181526020018280546104159061162f565b80156104625780601f1061043757610100808354040283529160200191610462565b820191906000526020600020905b81548152906001019060200180831161044557829003601f168201915b5050505050815260200160038201805461047b9061162f565b80601f01602080910402602001604051908101604052809291908181526020018280546104a79061162f565b80156104f45780601f106104c9576101008083540402835291602001916104f4565b820191906000526020600020905b8154815290600101906020018083116104d757829003601f168201915b5050505050815260200160048201805461050d9061162f565b80601f01602080910402602001604051908101604052809291908181526020018280546105399061162f565b80156105865780601f1061055b57610100808354040283529160200191610586565b820191906000526020600020905b81548152906001019060200180831161056957829003601f168201915b5050505050815260200160058201805461059f9061162f565b80601f01602080910402602001604051908101604052809291908181526020018280546105cb9061162f565b80156106185780601f106105ed57610100808354040283529160200191610618565b820191906000526020600020905b8154815290600101906020018083116105fb57829003601f168201915b505050505081526020016006820180546106319061162f565b80601f016020809104026020016040519081016040528092919081815260200182805461065d9061162f565b80156106aa5780601f1061067f576101008083540402835291602001916106aa565b820191906000526020600020905b81548152906001019060200180831161068d57829003601f168201915b505050505081526020016007820180546106c39061162f565b80601f01602080910402602001604051908101604052809291908181526020018280546106ef9061162f565b801561073c5780601f106107115761010080835404028352916020019161073c565b820191906000526020600020905b81548152906001019060200180831161071f57829003601f168201915b505050505081526020016008820180546107559061162f565b80601f01602080910402602001604051908101604052809291908181526020018280546107819061162f565b80156107ce5780601f106107a3576101008083540402835291602001916107ce565b820191906000526020600020905b8154815290600101906020018083116107b157829003601f168201915b505050505081526020016009820160009054906101000a900460ff161515151581525050905091509150915091565b60026020528060005260406000206000915054906101000a900460ff1681565b600160009054906101000a900473ffffffffffffffffffffffffffffffffffffffff1673ffffffffffffffffffffffffffffffffffffffff163373ffffffffffffffffffffffffffffffffffffffff16146108ad576040517f08c379a00000000000000000000000000000000000000000000000000000000081526004016108a4906114f7565b60405180910390fd5b6001600260008373ffffffffffffffffffffffffffffffffffffffff1673ffffffffffffffffffffffffffffffffffffffff16815260200190815260200160002060006101000a81548160ff0219169083151502179055508073ffffffffffffffffffffffffffffffffffffffff167f6d05492139c5ea989514a5d2150c028041e5c087e2a39967f67dc7d2655adb8160405160405180910390a250565b6000600160009054906101000a900473ffffffffffffffffffffffffffffffffffffffff1673ffffffffffffffffffffffffffffffffffffffff168273ffffffffffffffffffffffffffffffffffffffff16149050919050565b600160009054906101000a900473ffffffffffffffffffffffffffffffffffffffff1673ffffffffffffffffffffffffffffffffffffffff163373ffffffffffffffffffffffffffffffffffffffff1614610a35576040517f08c379a0000000000000000000000000000000000000000000000000000000008152600401610a2c906114f7565b60405180910390fd5b60008082815260200190815260200160002060090160009054906101000a900460ff1615610a98576040517f08c379a0000000000000000000000000000000000000000000000000000000008152600401610a8f906114d7565b60405180910390fd5b6040518061014001604052808b81526020018a8152602001898152602001888152602001878152602001868152602001858152602001848152602001838152602001600115158152506000808381526020019081526020016000206000820151816000019080519060200190610b0f929190610e0e565b506020820151816001019080519060200190610b2c929190610e0e565b506040820151816002019080519060200190610b49929190610e0e565b506060820151816003019080519060200190610b66929190610e0e565b506080820151816004019080519060200190610b83929190610e0e565b5060a0820151816005019080519060200190610ba0929190610e0e565b5060c0820151816006019080519060200190610bbd929190610e0e565b5060e0820151816007019080519060200190610bda929190610e0e565b50610100820151816008019080519060200190610bf8929190610e0e565b506101208201518160090160006101000a81548160ff021916908315150217905550905050807f5d8c446b54d0c545f283761a8165da5aea8e8bfe82b2b818ea4bb549612d6d018b8b8b604051610c519392919061146b565b60405180910390a250505050505050505050565b600160009054906101000a900473ffffffffffffffffffffffffffffffffffffffff1673ffffffffffffffffffffffffffffffffffffffff163373ffffffffffffffffffffffffffffffffffffffff1614610cf5576040517f08c379a0000000000000000000000000000000000000000000000000000000008152600401610cec906114f7565b60405180910390fd5b6000600260008373ffffffffffffffffffffffffffffffffffffffff1673ffffffffffffffffffffffffffffffffffffffff16815260200190815260200160002060006101000a81548160ff0219169083151502179055508073ffffffffffffffffffffffffffffffffffffffff167f44a3cd4eb5cc5748f6169df057b1cb2ae4c383e87cd94663c430e095d4cba42460405160405180910390a250565b600160009054906101000a900473ffffffffffffffffffffffffffffffffffffffff1681565b6040518061014001604052806060815260200160608152602001606081526020016060815260200160608152602001606081526020016060815260200160608152602001606081526020016000151581525090565b828054610e1a9061162f565b90600052602060002090601f016020900481019282610e3c5760008555610e83565b82601f10610e5557805160ff1916838001178555610e83565b82800160010185558215610e83579182015b82811115610e82578251825591602001919060010190610e67565b5b509050610e909190610e94565b5090565b5b80821115610ead576000816000905550600101610e95565b5090565b6000610ec4610ebf84611548565b611517565b905082815260208101848484011115610edc57600080fd5b610ee78482856115ed565b509392505050565b600081359050610efe816116d0565b92915050565b600081359050610f13816116e7565b92915050565b600082601f830112610f2a57600080fd5b8135610f3a848260208601610eb1565b91505092915050565b600060208284031215610f5557600080fd5b6000610f6384828501610eef565b91505092915050565b600060208284031215610f7e57600080fd5b6000610f8c84828501610f04565b91505092915050565b6000806000806000806000806000806101408b8d031215610fb557600080fd5b60008b013567ffffffffffffffff811115610fcf57600080fd5b610fdb8d828e01610f19565b9a505060208b013567ffffffffffffffff811115610ff857600080fd5b6110048d828e01610f19565b99505060408b013567ffffffffffffffff81111561102157600080fd5b61102d8d828e01610f19565b98505060608b013567ffffffffffffffff81111561104a57600080fd5b6110568d828e01610f19565b97505060808b013567ffffffffffffffff81111561107357600080fd5b61107f8d828e01610f19565b96505060a08b013567ffffffffffffffff81111561109c57600080fd5b6110a88d828e01610f19565b95505060c08b013567ffffffffffffffff8111156110c557600080fd5b6110d18d828e01610f19565b94505060e08b013567ffffffffffffffff8111156110ee57600080fd5b6110fa8d828e01610f19565b9350506101008b013567ffffffffffffffff81111561111857600080fd5b6111248d828e01610f19565b9250506101206111368d828e01610f04565b9150509295989b9194979a5092959850565b611151816115a5565b82525050565b611160816115b7565b82525050565b61116f816115b7565b82525050565b600061118082611578565b61118a8185611583565b935061119a8185602086016115fc565b6111a3816116bf565b840191505092915050565b60006111b982611578565b6111c38185611594565b93506111d38185602086016115fc565b6111dc816116bf565b840191505092915050565b60006111f4602e83611594565b91507f4f6e6c79207665726966696572206f722061646d696e2063616e20706572666f60008301527f726d207468697320616374696f6e0000000000000000000000000000000000006020830152604082019050919050565b600061125a601583611594565b91507f44656772656520616c72656164792065786973747300000000000000000000006000830152602082019050919050565b600061129a602283611594565b91507f4f6e6c792061646d696e2063616e20706572666f726d2074686973206163746960008301527f6f6e0000000000000000000000000000000000000000000000000000000000006020830152604082019050919050565b60006101408301600083015184820360008601526113118282611175565b9150506020830151848203602086015261132b8282611175565b915050604083015184820360408601526113458282611175565b9150506060830151848203606086015261135f8282611175565b915050608083015184820360808601526113798282611175565b91505060a083015184820360a08601526113938282611175565b91505060c083015184820360c08601526113ad8282611175565b91505060e083015184820360e08601526113c78282611175565b9150506101008301518482036101008601526113e38282611175565b9150506101208301516113fa610120860182611157565b508091505092915050565b600060208201905061141a6000830184611148565b92915050565b60006020820190506114356000830184611166565b92915050565b60006040820190506114506000830185611166565b818103602083015261146281846112f3565b90509392505050565b6000606082019050818103600083015261148581866111ae565b9050818103602083015261149981856111ae565b905081810360408301526114ad81846111ae565b9050949350505050565b600060208201905081810360008301526114d0816111e7565b9050919050565b600060208201905081810360008301526114f08161124d565b9050919050565b600060208201905081810360008301526115108161128d565b9050919050565b6000604051905081810181811067ffffffffffffffff8211171561153e5761153d611690565b5b8060405250919050565b600067ffffffffffffffff82111561156357611562611690565b5b601f19601f8301169050602081019050919050565b600081519050919050565b600082825260208201905092915050565b600082825260208201905092915050565b60006115b0826115cd565b9050919050565b60008115159050919050565b6000819050919050565b600073ffffffffffffffffffffffffffffffffffffffff82169050919050565b82818337600083830152505050565b60005b8381101561161a5780820151818401526020810190506115ff565b83811115611629576000848401525b50505050565b6000600282049050600182168061164757607f821691505b6020821081141561165b5761165a611661565b5b50919050565b7f4e487b7100000000000000000000000000000000000000000000000000000000600052602260045260246000fd5b7f4e487b7100000000000000000000000000000000000000000000000000000000600052604160045260246000fd5b6000601f19601f8301169050919050565b6116d9816115a5565b81146116e457600080fd5b50565b6116f0816115c3565b81146116fb57600080fd5b5056fea2646970667358221220655525330f560de30402989ec360367d8a6b8d02ebf153b7034c342ccad05f0364736f6c63430008000033",
  "immutableReferences": {},
  "source": "// SPDX-License-Identifier: MIT\r\npragma solidity ^0.8.0;\r\n\r\ncontract DegreeVerification {\r\n    struct Degree {\r\n        string firstName;\r\n        string lastName;\r\n        string rollNumber;\r\n        string gender;\r\n        string course;\r\n        string email;\r\n        string year;\r\n        string graduationYear;\r\n        string gpa;\r\n        bool exists;\r\n    }\r\n\r\n    mapping(bytes32 => Degree) private degrees;\r\n    address public admin;\r\n    mapping(address => bool) public verifiers;\r\n\r\n    event DegreeAdded(bytes32 indexed degreeHash, string firstName, string lastName, string rollNumber);\r\n    event VerifierAdded(address indexed verifier);\r\n    event VerifierRemoved(address indexed verifier);\r\n\r\n    constructor() {\r\n        admin = msg.sender;\r\n    }\r\n    \r\n    function isAddressAdmin(address _addr) public view returns (bool) {\r\n    return _addr == admin;\r\n}\r\n\r\n    modifier onlyAdmin() {\r\n        require(msg.sender == admin, \"Only admin can perform this action\");\r\n        _;\r\n    }\r\n\r\n    modifier onlyVerifier() {\r\n        require(verifiers[msg.sender] || msg.sender == admin, \"Only verifier or admin can perform this action\");\r\n        _;\r\n    }\r\n\r\n    function addVerifier(address _verifier) public onlyAdmin {\r\n        verifiers[_verifier] = true;\r\n        emit VerifierAdded(_verifier);\r\n    }\r\n\r\n    function removeVerifier(address _verifier) public onlyAdmin {\r\n        verifiers[_verifier] = false;\r\n        emit VerifierRemoved(_verifier);\r\n    }\r\n\r\n    function addDegree(\r\n        string memory _firstName,\r\n        string memory _lastName,\r\n        string memory _rollNumber,\r\n        string memory _gender,\r\n        string memory _course,\r\n        string memory _email,\r\n        string memory _year,\r\n        string memory _graduationYear,\r\n        string memory _gpa,\r\n        bytes32 _hexCode\r\n    ) public onlyAdmin {\r\n        require(!degrees[_hexCode].exists, \"Degree already exists\");\r\n\r\n        degrees[_hexCode] = Degree(\r\n            _firstName,\r\n            _lastName,\r\n            _rollNumber,\r\n            _gender,\r\n            _course,\r\n            _email,\r\n            _year,\r\n            _graduationYear,\r\n            _gpa,\r\n            true\r\n        );\r\n        emit DegreeAdded(_hexCode, _firstName, _lastName, _rollNumber);\r\n    }\r\n\r\n    function verifyDegree(bytes32 _hexCode) public view onlyVerifier returns (bool, Degree memory) {\r\n        return (degrees[_hexCode].exists, degrees[_hexCode]);\r\n    }\r\n\r\n    \r\n}\r\n\r\n",
  "sourcePath": "C:\\Users\\patha\\Desktop\\Experiments\\Blockchain\\contracts\\DegreeVerification.sol",
  "compiler": {
    "name": "solc",
    "version": "0.8.0+commit.c7dfd78e.Emscripten.clang"
  },
  "schemaVersion": "3.4.16",
  "updatedAt": "2025-05-06T17:36:20.797Z",
  "networkType": "ethereum",
  "devdoc": {
    "kind": "dev",
    "methods": {},
    "version": 1
  },
  "userdoc": {
    "kind": "user",
    "methods": {},
    "version": 1
  }
}